{
  "transactions": [
    {
      "hash": "0x9ea1b90159ded9b0cff6594de997d34e3cdd1479f4f50914b12825e5d3d47cca",
      "transactionType": "CALL",
      "contractName": null,
      "contractAddress": "0x2097796487bea53b00d1e6e2d3327d30bef08e3e",
      "function": "createTask(string,uint256)",
      "arguments": [
        "AI-Net demo: market analysis",
        "86400"
      ],
      "transaction": {
        "from": "0xa5efe8954b68b95333f3ace9e65039dc8235fd47",
        "to": "0x2097796487bea53b00d1e6e2d3327d30bef08e3e",
        "gas": "0x5771a",
        "value": "0xb1a2bc2ec50000",
        "input": "0x04fe2b3400000000000000000000000000000000000000000000000000000000000000400000000000000000000000000000000000000000000000000000000000015180000000000000000000000000000000000000000000000000000000000000001c41492d4e65742064656d6f3a206d61726b657420616e616c7973697300000000",
        "nonce": "0xb3",
        "chainId": "0xa4ec"
      },
      "additionalContracts": [],
      "isFixedGasLimit": false
    },
    {
      "hash": "0x75702ac5484c9a71716856f7a3a20cb8ecf221dacdaaf3b8e389f817c8bfe0d2",
      "transactionType": "CALL",
      "contractName": null,
      "contractAddress": "0x2097796487bea53b00d1e6e2d3327d30bef08e3e",
      "function": "hireAgent(uint256,address)",
      "arguments": [
        "4",
        "0xA5EFE8954B68B95333f3aCE9e65039DC8235fD47"
      ],
      "transaction": {
        "from": "0xa5efe8954b68b95333f3ace9e65039dc8235fd47",
        "to": "0x2097796487bea53b00d1e6e2d3327d30bef08e3e",
        "gas": "0x3ad2b",
        "value": "0x0",
        "input": "0x04d09ed30000000000000000000000000000000000000000000000000000000000000004000000000000000000000000a5efe8954b68b95333f3ace9e65039dc8235fd47",
        "nonce": "0xb4",
        "chainId": "0xa4ec"
      },
      "additionalContracts": [],
      "isFixedGasLimit": false
    },
    {
      "hash": "0xde3e0247114da62977f397773d32487be1be00096e32261c8ec2d1fd2f4e881d",
      "transactionType": "CALL",
      "contractName": null,
      "contractAddress": "0x2097796487bea53b00d1e6e2d3327d30bef08e3e",
      "function": "completeTask(uint256)",
      "arguments": [
        "4"
      ],
      "transaction": {
        "from": "0xa5efe8954b68b95333f3ace9e65039dc8235fd47",
        "to": "0x2097796487bea53b00d1e6e2d3327d30bef08e3e",
        "gas": "0x21975",
        "value": "0x0",
        "input": "0xe1e295580000000000000000000000000000000000000000000000000000000000000004",
        "nonce": "0xb5",
        "chainId": "0xa4ec"
      },
      "additionalContracts": [],
      "isFixedGasLimit": false
    }
  ],
  "receipts": [
    {
      "status": "0x1",
      "cumulativeGasUsed": "0xb6dc5",
      "logs": [
        {
          "address": "0x190091c0b717ad7fa34a3840a16a8753444d8b2c",
          "topics": [
            "0xf8df449da0e7b3345f2e56522310339e79caf40121b8320c0d184383d91f28eb",
            "0x0000000000000000000000000000000000000000000000000000000000000004",
            "0x0000000000000000000000002097796487bea53b00d1e6e2d3327d30bef08e3e",
            "0x0000000000000000000000002097796487bea53b00d1e6e2d3327d30bef08e3e"
          ],
          "data": "0x00000000000000000000000000000000000000000000000000b1a2bc2ec50000000000000000000000000000000000000000000000000000000000006a2cb02a",
          "blockHash": "0xc6041d0db38b07aca5b25721973e41a0305b1c56d6aa36a327114a53e5959990",
          "blockNumber": "0x421d654",
          "blockTimestamp": "0x6a2b5eaa",
          "transactionHash": "0x9ea1b90159ded9b0cff6594de997d34e3cdd1479f4f50914b12825e5d3d47cca",
          "transactionIndex": "0x4",
          "logIndex": "0x9",
          "removed": false
        },
        {
          "address": "0x2097796487bea53b00d1e6e2d3327d30bef08e3e",
          "topics": [
            "0xf5ac772f880dc6ed6b50db24e062bbc51818e270ed47533fd9162e5255fa2913",
            "0x0000000000000000000000000000000000000000000000000000000000000004",
            "0x000000000000000000000000a5efe8954b68b95333f3ace9e65039dc8235fd47"
          ],
          "data": "0x00000000000000000000000000000000000000000000000000b1a2bc2ec500000000000000000000000000000000000000000000000000000000000000000004",
          "blockHash": "0xc6041d0db38b07aca5b25721973e41a0305b1c56d6aa36a327114a53e5959990",
          "blockNumber": "0x421d654",
          "blockTimestamp": "0x6a2b5eaa",
          "transactionHash": "0x9ea1b90159ded9b0cff6594de997d34e3cdd1479f4f50914b12825e5d3d47cca",
          "transactionIndex": "0x4",
          "logIndex": "0xa",
          "removed": false
        }
      ],
      "logsBloom": "0x0000000020000000000000000000000000000000000000000200000000000040000028000002000000000000000000000000000000000000000000000000000000000042000000000000000000000000000000000000001000000000000000000800000000000000000000000000000000008000000000000000800000000000000000000000004000008000808000000000000000000000000000000000000000000000000000000000000000000000000000000000000000200000000040000000000000000000000000000008000000000000a000000000000000000000000000000000000000000000000000000000000000000000000000000000000000",
      "type": "0x0",
      "transactionHash": "0x9ea1b90159ded9b0cff6594de997d34e3cdd1479f4f50914b12825e5d3d47cca",
      "transactionIndex": "0x4",
      "blockHash": "0xc6041d0db38b07aca5b25721973e41a0305b1c56d6aa36a327114a53e5959990",
      "blockNumber": "0x421d654",
      "gasUsed": "0x3f4ee",
      "effectiveGasPrice": "0x2f25f0c900",
      "blobGasUsed": "0x67",
      "from": "0xa5efe8954b68b95333f3ace9e65039dc8235fd47",
      "to": "0x2097796487bea53b00d1e6e2d3327d30bef08e3e",
      "contractAddress": null,
      "daFootprintGasScalar": "0x1",
      "l1BaseFeeScalar": "0x0",
      "l1BlobBaseFee": "0x730d52",
      "l1BlobBaseFeeScalar": "0x0",
      "l1Fee": "0x0",
      "l1GasPrice": "0x8186e84",
      "l1GasUsed": "0x67c"
    },
    {
      "status": "0x1",
      "cumulativeGasUsed": "0xdf14e",
      "logs": [
        {
          "address": "0x190091c0b717ad7fa34a3840a16a8753444d8b2c",
          "topics": [
            "0xfd68844924c54de4ef4583872c2ed6777894d6d7d839917d95de2c814e966bb7",
            "0x0000000000000000000000000000000000000000000000000000000000000004",
            "0x000000000000000000000000a5efe8954b68b95333f3ace9e65039dc8235fd47"
          ],
          "data": "0x000000000000000000000000000000000000000000000000002386f26fc10000",
          "blockHash": "0xc6041d0db38b07aca5b25721973e41a0305b1c56d6aa36a327114a53e5959990",
          "blockNumber": "0x421d654",
          "blockTimestamp": "0x6a2b5eaa",
          "transactionHash": "0x75702ac5484c9a71716856f7a3a20cb8ecf221dacdaaf3b8e389f817c8bfe0d2",
          "transactionIndex": "0x5",
          "logIndex": "0xb",
          "removed": false
        },
        {
          "address": "0x2097796487bea53b00d1e6e2d3327d30bef08e3e",
          "topics": [
            "0x7d285cc9741ddca237fb19e4e73a51fe9a053ecebd84b06fc478dcdd24f0cab5",
            "0x0000000000000000000000000000000000000000000000000000000000000004",
            "0x000000000000000000000000a5efe8954b68b95333f3ace9e65039dc8235fd47"
          ],
          "data": "0x000000000000000000000000000000000000000000000000002386f26fc10000",
          "blockHash": "0xc6041d0db38b07aca5b25721973e41a0305b1c56d6aa36a327114a53e5959990",
          "blockNumber": "0x421d654",
          "blockTimestamp": "0x6a2b5eaa",
          "transactionHash": "0x75702ac5484c9a71716856f7a3a20cb8ecf221dacdaaf3b8e389f817c8bfe0d2",
          "transactionIndex": "0x5",
          "logIndex": "0xc",
          "removed": false
        }
      ],
      "logsBloom": "0x0000000000000000000000000000000000000000000000000000000000000000000020000000000000000000000000000000000000000000000000000000000000000002000000000000000000000000000000000000001000000000200000000800000000000000000000000000000000000000000000000000800000000000000000000000004000208000800000000000000000000000000000000000000000000000000000000000000000000000000000000010000000200000000000000002400000000000000000000008000000000000a000000000000000200000000000000000000000000000000000000000000000000000000000000000000000",
      "type": "0x0",
      "transactionHash": "0x75702ac5484c9a71716856f7a3a20cb8ecf221dacdaaf3b8e389f817c8bfe0d2",
      "transactionIndex": "0x5",
      "blockHash": "0xc6041d0db38b07aca5b25721973e41a0305b1c56d6aa36a327114a53e5959990",
      "blockNumber": "0x421d654",
      "gasUsed": "0x28389",
      "effectiveGasPrice": "0x2f25f0c900",
      "blobGasUsed": "0x64",
      "from": "0xa5efe8954b68b95333f3ace9e65039dc8235fd47",
      "to": "0x2097796487bea53b00d1e6e2d3327d30bef08e3e",
      "contractAddress": null,
      "daFootprintGasScalar": "0x1",
      "l1BaseFeeScalar": "0x0",
      "l1BlobBaseFee": "0x730d52",
      "l1BlobBaseFeeScalar": "0x0",
      "l1Fee": "0x0",
      "l1GasPrice": "0x8186e84",
      "l1GasUsed": "0x640"
    },
    {
      "status": "0x1",
      "cumulativeGasUsed": "0xf766b",
      "logs": [
        {
          "address": "0x190091c0b717ad7fa34a3840a16a8753444d8b2c",
          "topics": [
            "0x29bf13520d7d838f6f4c468057ec45796904d705e2404b68ebb593adb0a607df",
            "0x0000000000000000000000000000000000000000000000000000000000000004"
          ],
          "data": "0x000000000000000000000000000000000000000000000000008e1bc9bf040000",
          "blockHash": "0xc6041d0db38b07aca5b25721973e41a0305b1c56d6aa36a327114a53e5959990",
          "blockNumber": "0x421d654",
          "blockTimestamp": "0x6a2b5eaa",
          "transactionHash": "0xde3e0247114da62977f397773d32487be1be00096e32261c8ec2d1fd2f4e881d",
          "transactionIndex": "0x6",
          "logIndex": "0xd",
          "removed": false
        },
        {
          "address": "0x2097796487bea53b00d1e6e2d3327d30bef08e3e",
          "topics": [
            "0x843af93d40addceac6932508439844b897d4df9e971db326d557e3cdaa9f3ebf",
            "0x0000000000000000000000000000000000000000000000000000000000000004",
            "0x000000000000000000000000a5efe8954b68b95333f3ace9e65039dc8235fd47"
          ],
          "data": "0x000000000000000000000000000000000000000000000000008e1bc9bf040000",
          "blockHash": "0xc6041d0db38b07aca5b25721973e41a0305b1c56d6aa36a327114a53e5959990",
          "blockNumber": "0x421d654",
          "blockTimestamp": "0x6a2b5eaa",
          "transactionHash": "0xde3e0247114da62977f397773d32487be1be00096e32261c8ec2d1fd2f4e881d",
          "transactionIndex": "0x6",
          "logIndex": "0xe",
          "removed": false
        }
      ],
      "logsBloom": "0x0020000000000000000000000000000000000000000000000000000000000000000020000000000000000040000000000000000000000000000000100000000000000002000000000000000000000000000000000000001000000000000000000800000000000000000000000000000000000000000000000080800000000000000000000000004000008000800000000000000000000000000000000000000000000000000000000000000000000000000000000000000000200000000000000000000000000000000000000008000000000020a000000000000000001000000000000000000000000000000000000000000000000000000000000000000000",
      "type": "0x0",
      "transactionHash": "0xde3e0247114da62977f397773d32487be1be00096e32261c8ec2d1fd2f4e881d",
      "transactionIndex": "0x6",
      "blockHash": "0xc6041d0db38b07aca5b25721973e41a0305b1c56d6aa36a327114a53e5959990",
      "blockNumber": "0x421d654",
      "gasUsed": "0x1851d",
      "effectiveGasPrice": "0x2f25f0c900",
      "blobGasUsed": "0x64",
      "from": "0xa5efe8954b68b95333f3ace9e65039dc8235fd47",
      "to": "0x2097796487bea53b00d1e6e2d3327d30bef08e3e",
      "contractAddress": null,
      "daFootprintGasScalar": "0x1",
      "l1BaseFeeScalar": "0x0",
      "l1BlobBaseFee": "0x730d52",
      "l1BlobBaseFeeScalar": "0x0",
      "l1Fee": "0x0",
      "l1GasPrice": "0x8186e84",
      "l1GasUsed": "0x640"
    }
  ],
  "libraries": [],
  "pending": [],
  "returns": {},
  "timestamp": 1781227179503,
  "chain": 42220,
  "commit": "8faf622"
}