{
  "transactions": [
    {
      "hash": null,
      "transactionType": "CALL",
      "contractName": null,
      "contractAddress": "0x052f70c756b079f7eadb8b72c7ea1579215090c8",
      "function": "register(string,string,uint256)",
      "arguments": [
        "https://api.venice.ai/api/v1",
        "research",
        "10000000000000000"
      ],
      "transaction": {
        "from": "0xd14e15844ceb4db8aabe7f23e3e7f4097e344867",
        "to": "0x052f70c756b079f7eadb8b72c7ea1579215090c8",
        "gas": "0x3dcbd",
        "value": "0x0",
        "input": "0xe8a60558000000000000000000000000000000000000000000000000000000000000006000000000000000000000000000000000000000000000000000000000000000a0000000000000000000000000000000000000000000000000002386f26fc10000000000000000000000000000000000000000000000000000000000000000001c68747470733a2f2f6170692e76656e6963652e61692f6170692f76310000000000000000000000000000000000000000000000000000000000000000000000087265736561726368000000000000000000000000000000000000000000000000",
        "nonce": "0x0",
        "chainId": "0xa4ec"
      },
      "additionalContracts": [],
      "isFixedGasLimit": false
    },
    {
      "hash": null,
      "transactionType": "CALL",
      "contractName": null,
      "contractAddress": "0x052f70c756b079f7eadb8b72c7ea1579215090c8",
      "function": "register(string,string,uint256)",
      "arguments": [
        "https://api.venice.ai/api/v1",
        "risk",
        "10000000000000000"
      ],
      "transaction": {
        "from": "0xf0055f49e6bd2ce3b12357af60540bc8bdc4afac",
        "to": "0x052f70c756b079f7eadb8b72c7ea1579215090c8",
        "gas": "0x3b4f0",
        "value": "0x0",
        "input": "0xe8a60558000000000000000000000000000000000000000000000000000000000000006000000000000000000000000000000000000000000000000000000000000000a0000000000000000000000000000000000000000000000000002386f26fc10000000000000000000000000000000000000000000000000000000000000000001c68747470733a2f2f6170692e76656e6963652e61692f6170692f76310000000000000000000000000000000000000000000000000000000000000000000000047269736b00000000000000000000000000000000000000000000000000000000",
        "nonce": "0x0",
        "chainId": "0xa4ec"
      },
      "additionalContracts": [],
      "isFixedGasLimit": false
    },
    {
      "hash": null,
      "transactionType": "CALL",
      "contractName": null,
      "contractAddress": "0x052f70c756b079f7eadb8b72c7ea1579215090c8",
      "function": "register(string,string,uint256)",
      "arguments": [
        "https://api.venice.ai/api/v1",
        "report",
        "10000000000000000"
      ],
      "transaction": {
        "from": "0x9fcb62ce711f8768898a8c5ffbff3ac2c5c51a85",
        "to": "0x052f70c756b079f7eadb8b72c7ea1579215090c8",
        "gas": "0x3b513",
        "value": "0x0",
        "input": "0xe8a60558000000000000000000000000000000000000000000000000000000000000006000000000000000000000000000000000000000000000000000000000000000a0000000000000000000000000000000000000000000000000002386f26fc10000000000000000000000000000000000000000000000000000000000000000001c68747470733a2f2f6170692e76656e6963652e61692f6170692f76310000000000000000000000000000000000000000000000000000000000000000000000067265706f72740000000000000000000000000000000000000000000000000000",
        "nonce": "0x0",
        "chainId": "0xa4ec"
      },
      "additionalContracts": [],
      "isFixedGasLimit": false
    },
    {
      "hash": null,
      "transactionType": "CALL",
      "contractName": null,
      "contractAddress": "0x052f70c756b079f7eadb8b72c7ea1579215090c8",
      "function": "register(string,string,uint256)",
      "arguments": [
        "https://api.venice.ai/api/v1",
        "coding",
        "20000000000000000"
      ],
      "transaction": {
        "from": "0xcdfe537f32a2a7c58afa8ac401a13a5364643e2e",
        "to": "0x052f70c756b079f7eadb8b72c7ea1579215090c8",
        "gas": "0x3b513",
        "value": "0x0",
        "input": "0xe8a60558000000000000000000000000000000000000000000000000000000000000006000000000000000000000000000000000000000000000000000000000000000a000000000000000000000000000000000000000000000000000470de4df820000000000000000000000000000000000000000000000000000000000000000001c68747470733a2f2f6170692e76656e6963652e61692f6170692f7631000000000000000000000000000000000000000000000000000000000000000000000006636f64696e670000000000000000000000000000000000000000000000000000",
        "nonce": "0x0",
        "chainId": "0xa4ec"
      },
      "additionalContracts": [],
      "isFixedGasLimit": false
    },
    {
      "hash": null,
      "transactionType": "CALL",
      "contractName": null,
      "contractAddress": "0x052f70c756b079f7eadb8b72c7ea1579215090c8",
      "function": "register(string,string,uint256)",
      "arguments": [
        "https://api.venice.ai/api/v1",
        "design",
        "10000000000000000"
      ],
      "transaction": {
        "from": "0x0bdd9e8b4beef396adea5e709f91360774672bc2",
        "to": "0x052f70c756b079f7eadb8b72c7ea1579215090c8",
        "gas": "0x3b513",
        "value": "0x0",
        "input": "0xe8a60558000000000000000000000000000000000000000000000000000000000000006000000000000000000000000000000000000000000000000000000000000000a0000000000000000000000000000000000000000000000000002386f26fc10000000000000000000000000000000000000000000000000000000000000000001c68747470733a2f2f6170692e76656e6963652e61692f6170692f763100000000000000000000000000000000000000000000000000000000000000000000000664657369676e0000000000000000000000000000000000000000000000000000",
        "nonce": "0x0",
        "chainId": "0xa4ec"
      },
      "additionalContracts": [],
      "isFixedGasLimit": false
    }
  ],
  "receipts": [],
  "libraries": [],
  "pending": [],
  "returns": {},
  "timestamp": 1781222545637,
  "chain": 42220,
  "commit": "77e3a86"
}