{
  "transactions": [
    {
      "hash": "0x69293fe3fb7010586d870b9051462cdb897cc3f653fd055a02058ab60dd87ed8",
      "transactionType": "CALL",
      "contractName": null,
      "contractAddress": "0x052f70c756b079f7eadb8b72c7ea1579215090c8",
      "function": "register(string,string,uint256)",
      "arguments": [
        "https://api.venice.ai/api/v1",
        "research",
        "10000000000000000"
      ],
      "transaction": {
        "from": "0xa5efe8954b68b95333f3ace9e65039dc8235fd47",
        "to": "0x052f70c756b079f7eadb8b72c7ea1579215090c8",
        "gas": "0x3dcbd",
        "value": "0x0",
        "input": "0xe8a60558000000000000000000000000000000000000000000000000000000000000006000000000000000000000000000000000000000000000000000000000000000a0000000000000000000000000000000000000000000000000002386f26fc10000000000000000000000000000000000000000000000000000000000000000001c68747470733a2f2f6170692e76656e6963652e61692f6170692f76310000000000000000000000000000000000000000000000000000000000000000000000087265736561726368000000000000000000000000000000000000000000000000",
        "nonce": "0xa2",
        "chainId": "0xa4ec"
      },
      "additionalContracts": [],
      "isFixedGasLimit": false
    },
    {
      "hash": "0xf3a5c8703a2f71144c8dea76f6d294b6bf548d7a56eec05232ce2f03764f9b57",
      "transactionType": "CALL",
      "contractName": null,
      "contractAddress": "0x052f70c756b079f7eadb8b72c7ea1579215090c8",
      "function": "register(string,string,uint256)",
      "arguments": [
        "https://api.venice.ai/api/v1",
        "risk",
        "10000000000000000"
      ],
      "transaction": {
        "from": "0xa5efe8954b68b95333f3ace9e65039dc8235fd47",
        "to": "0x052f70c756b079f7eadb8b72c7ea1579215090c8",
        "gas": "0xf0ae",
        "value": "0x0",
        "input": "0xe8a60558000000000000000000000000000000000000000000000000000000000000006000000000000000000000000000000000000000000000000000000000000000a0000000000000000000000000000000000000000000000000002386f26fc10000000000000000000000000000000000000000000000000000000000000000001c68747470733a2f2f6170692e76656e6963652e61692f6170692f76310000000000000000000000000000000000000000000000000000000000000000000000047269736b00000000000000000000000000000000000000000000000000000000",
        "nonce": "0xa3",
        "chainId": "0xa4ec"
      },
      "additionalContracts": [],
      "isFixedGasLimit": false
    },
    {
      "hash": "0xce031568e5a78689a3d7a77c7f8a1858b7fbec9746cb797b3e271c07d426323c",
      "transactionType": "CALL",
      "contractName": null,
      "contractAddress": "0x052f70c756b079f7eadb8b72c7ea1579215090c8",
      "function": "register(string,string,uint256)",
      "arguments": [
        "https://api.venice.ai/api/v1",
        "report",
        "10000000000000000"
      ],
      "transaction": {
        "from": "0xa5efe8954b68b95333f3ace9e65039dc8235fd47",
        "to": "0x052f70c756b079f7eadb8b72c7ea1579215090c8",
        "gas": "0xf0d1",
        "value": "0x0",
        "input": "0xe8a60558000000000000000000000000000000000000000000000000000000000000006000000000000000000000000000000000000000000000000000000000000000a0000000000000000000000000000000000000000000000000002386f26fc10000000000000000000000000000000000000000000000000000000000000000001c68747470733a2f2f6170692e76656e6963652e61692f6170692f76310000000000000000000000000000000000000000000000000000000000000000000000067265706f72740000000000000000000000000000000000000000000000000000",
        "nonce": "0xa4",
        "chainId": "0xa4ec"
      },
      "additionalContracts": [],
      "isFixedGasLimit": false
    },
    {
      "hash": "0xa3d86ae8948d36990203a6f5c90c2b9e56dc1b0e231b52bf69ce9d7c882b52cf",
      "transactionType": "CALL",
      "contractName": null,
      "contractAddress": "0x052f70c756b079f7eadb8b72c7ea1579215090c8",
      "function": "register(string,string,uint256)",
      "arguments": [
        "https://api.venice.ai/api/v1",
        "coding",
        "20000000000000000"
      ],
      "transaction": {
        "from": "0xa5efe8954b68b95333f3ace9e65039dc8235fd47",
        "to": "0x052f70c756b079f7eadb8b72c7ea1579215090c8",
        "gas": "0x100d0",
        "value": "0x0",
        "input": "0xe8a60558000000000000000000000000000000000000000000000000000000000000006000000000000000000000000000000000000000000000000000000000000000a000000000000000000000000000000000000000000000000000470de4df820000000000000000000000000000000000000000000000000000000000000000001c68747470733a2f2f6170692e76656e6963652e61692f6170692f7631000000000000000000000000000000000000000000000000000000000000000000000006636f64696e670000000000000000000000000000000000000000000000000000",
        "nonce": "0xa5",
        "chainId": "0xa4ec"
      },
      "additionalContracts": [],
      "isFixedGasLimit": false
    },
    {
      "hash": "0x99b0a4141fa060dccb97592f7a19adb35b3b08b2df499bbd5511d7a9eb901630",
      "transactionType": "CALL",
      "contractName": null,
      "contractAddress": "0x052f70c756b079f7eadb8b72c7ea1579215090c8",
      "function": "register(string,string,uint256)",
      "arguments": [
        "https://api.venice.ai/api/v1",
        "design",
        "10000000000000000"
      ],
      "transaction": {
        "from": "0xa5efe8954b68b95333f3ace9e65039dc8235fd47",
        "to": "0x052f70c756b079f7eadb8b72c7ea1579215090c8",
        "gas": "0x100d0",
        "value": "0x0",
        "input": "0xe8a60558000000000000000000000000000000000000000000000000000000000000006000000000000000000000000000000000000000000000000000000000000000a0000000000000000000000000000000000000000000000000002386f26fc10000000000000000000000000000000000000000000000000000000000000000001c68747470733a2f2f6170692e76656e6963652e61692f6170692f763100000000000000000000000000000000000000000000000000000000000000000000000664657369676e0000000000000000000000000000000000000000000000000000",
        "nonce": "0xa6",
        "chainId": "0xa4ec"
      },
      "additionalContracts": [],
      "isFixedGasLimit": false
    }
  ],
  "receipts": [
    {
      "status": "0x1",
      "cumulativeGasUsed": "0x38023",
      "logs": [
        {
          "address": "0x052f70c756b079f7eadb8b72c7ea1579215090c8",
          "topics": [
            "0x023c5efe572c42192271951adb0e77f97d7fc84bc761d026189ac08617346824",
            "0x000000000000000000000000a5efe8954b68b95333f3ace9e65039dc8235fd47"
          ],
          "data": "0x0000000000000000000000000000000000000000000000000000000000000040000000000000000000000000000000000000000000000000002386f26fc1000000000000000000000000000000000000000000000000000000000000000000087265736561726368000000000000000000000000000000000000000000000000",
          "blockHash": "0x5ffa41e4fe1374f9a11cbd90bf05a38d0a1bd9bcc56c7ec5d94061368568d512",
          "blockNumber": "0x421c45c",
          "blockTimestamp": "0x6a2b4cb2",
          "transactionHash": "0x69293fe3fb7010586d870b9051462cdb897cc3f653fd055a02058ab60dd87ed8",
          "transactionIndex": "0x1",
          "logIndex": "0x0",
          "removed": false
        }
      ],
      "logsBloom": "0x00000000000000000000000000000000000000000000000000000000000040000000200000000000000000000000000000000000000001000000000000000000000000000000000000000000000000000000000000000000000000000000000000000000000000000000000000000200000000000000000000000000000000000000000000000040000000000000000000000000000000000000000000000000000100000000100000000000000000000000000000000000000000000000000200000000000000000000000000080000000000000000000000000000000000000000000000000000000000000000000000000000000000000000000000000000",
      "type": "0x0",
      "transactionHash": "0x69293fe3fb7010586d870b9051462cdb897cc3f653fd055a02058ab60dd87ed8",
      "transactionIndex": "0x1",
      "blockHash": "0x5ffa41e4fe1374f9a11cbd90bf05a38d0a1bd9bcc56c7ec5d94061368568d512",
      "blockNumber": "0x421c45c",
      "gasUsed": "0x2cbd5",
      "effectiveGasPrice": "0x2f25f0c900",
      "blobGasUsed": "0x78",
      "from": "0xa5efe8954b68b95333f3ace9e65039dc8235fd47",
      "to": "0x052f70c756b079f7eadb8b72c7ea1579215090c8",
      "contractAddress": null,
      "daFootprintGasScalar": "0x1",
      "l1BaseFeeScalar": "0x0",
      "l1BlobBaseFee": "0x68c911",
      "l1BlobBaseFeeScalar": "0x0",
      "l1Fee": "0x0",
      "l1GasPrice": "0x78388cf",
      "l1GasUsed": "0x788"
    },
    {
      "status": "0x1",
      "cumulativeGasUsed": "0x424b5",
      "logs": [
        {
          "address": "0x052f70c756b079f7eadb8b72c7ea1579215090c8",
          "topics": [
            "0x023c5efe572c42192271951adb0e77f97d7fc84bc761d026189ac08617346824",
            "0x000000000000000000000000a5efe8954b68b95333f3ace9e65039dc8235fd47"
          ],
          "data": "0x0000000000000000000000000000000000000000000000000000000000000040000000000000000000000000000000000000000000000000002386f26fc1000000000000000000000000000000000000000000000000000000000000000000047269736b00000000000000000000000000000000000000000000000000000000",
          "blockHash": "0x5ffa41e4fe1374f9a11cbd90bf05a38d0a1bd9bcc56c7ec5d94061368568d512",
          "blockNumber": "0x421c45c",
          "blockTimestamp": "0x6a2b4cb2",
          "transactionHash": "0xf3a5c8703a2f71144c8dea76f6d294b6bf548d7a56eec05232ce2f03764f9b57",
          "transactionIndex": "0x2",
          "logIndex": "0x1",
          "removed": false
        }
      ],
      "logsBloom": "0x00000000000000000000000000000000000000000000000000000000000040000000200000000000000000000000000000000000000001000000000000000000000000000000000000000000000000000000000000000000000000000000000000000000000000000000000000000200000000000000000000000000000000000000000000000040000000000000000000000000000000000000000000000000000100000000100000000000000000000000000000000000000000000000000200000000000000000000000000080000000000000000000000000000000000000000000000000000000000000000000000000000000000000000000000000000",
      "type": "0x0",
      "transactionHash": "0xf3a5c8703a2f71144c8dea76f6d294b6bf548d7a56eec05232ce2f03764f9b57",
      "transactionIndex": "0x2",
      "blockHash": "0x5ffa41e4fe1374f9a11cbd90bf05a38d0a1bd9bcc56c7ec5d94061368568d512",
      "blockNumber": "0x421c45c",
      "gasUsed": "0xa492",
      "effectiveGasPrice": "0x2f25f0c900",
      "blobGasUsed": "0x76",
      "from": "0xa5efe8954b68b95333f3ace9e65039dc8235fd47",
      "to": "0x052f70c756b079f7eadb8b72c7ea1579215090c8",
      "contractAddress": null,
      "daFootprintGasScalar": "0x1",
      "l1BaseFeeScalar": "0x0",
      "l1BlobBaseFee": "0x68c911",
      "l1BlobBaseFeeScalar": "0x0",
      "l1Fee": "0x0",
      "l1GasPrice": "0x78388cf",
      "l1GasUsed": "0x760"
    },
    {
      "status": "0x1",
      "cumulativeGasUsed": "0x4c95f",
      "logs": [
        {
          "address": "0x052f70c756b079f7eadb8b72c7ea1579215090c8",
          "topics": [
            "0x023c5efe572c42192271951adb0e77f97d7fc84bc761d026189ac08617346824",
            "0x000000000000000000000000a5efe8954b68b95333f3ace9e65039dc8235fd47"
          ],
          "data": "0x0000000000000000000000000000000000000000000000000000000000000040000000000000000000000000000000000000000000000000002386f26fc1000000000000000000000000000000000000000000000000000000000000000000067265706f72740000000000000000000000000000000000000000000000000000",
          "blockHash": "0x5ffa41e4fe1374f9a11cbd90bf05a38d0a1bd9bcc56c7ec5d94061368568d512",
          "blockNumber": "0x421c45c",
          "blockTimestamp": "0x6a2b4cb2",
          "transactionHash": "0xce031568e5a78689a3d7a77c7f8a1858b7fbec9746cb797b3e271c07d426323c",
          "transactionIndex": "0x3",
          "logIndex": "0x2",
          "removed": false
        }
      ],
      "logsBloom": "0x00000000000000000000000000000000000000000000000000000000000040000000200000000000000000000000000000000000000001000000000000000000000000000000000000000000000000000000000000000000000000000000000000000000000000000000000000000200000000000000000000000000000000000000000000000040000000000000000000000000000000000000000000000000000100000000100000000000000000000000000000000000000000000000000200000000000000000000000000080000000000000000000000000000000000000000000000000000000000000000000000000000000000000000000000000000",
      "type": "0x0",
      "transactionHash": "0xce031568e5a78689a3d7a77c7f8a1858b7fbec9746cb797b3e271c07d426323c",
      "transactionIndex": "0x3",
      "blockHash": "0x5ffa41e4fe1374f9a11cbd90bf05a38d0a1bd9bcc56c7ec5d94061368568d512",
      "blockNumber": "0x421c45c",
      "gasUsed": "0xa4aa",
      "effectiveGasPrice": "0x2f25f0c900",
      "blobGasUsed": "0x77",
      "from": "0xa5efe8954b68b95333f3ace9e65039dc8235fd47",
      "to": "0x052f70c756b079f7eadb8b72c7ea1579215090c8",
      "contractAddress": null,
      "daFootprintGasScalar": "0x1",
      "l1BaseFeeScalar": "0x0",
      "l1BlobBaseFee": "0x68c911",
      "l1BlobBaseFeeScalar": "0x0",
      "l1Fee": "0x0",
      "l1GasPrice": "0x78388cf",
      "l1GasUsed": "0x77b"
    },
    {
      "status": "0x1",
      "cumulativeGasUsed": "0x578f9",
      "logs": [
        {
          "address": "0x052f70c756b079f7eadb8b72c7ea1579215090c8",
          "topics": [
            "0x023c5efe572c42192271951adb0e77f97d7fc84bc761d026189ac08617346824",
            "0x000000000000000000000000a5efe8954b68b95333f3ace9e65039dc8235fd47"
          ],
          "data": "0x000000000000000000000000000000000000000000000000000000000000004000000000000000000000000000000000000000000000000000470de4df8200000000000000000000000000000000000000000000000000000000000000000006636f64696e670000000000000000000000000000000000000000000000000000",
          "blockHash": "0x5ffa41e4fe1374f9a11cbd90bf05a38d0a1bd9bcc56c7ec5d94061368568d512",
          "blockNumber": "0x421c45c",
          "blockTimestamp": "0x6a2b4cb2",
          "transactionHash": "0xa3d86ae8948d36990203a6f5c90c2b9e56dc1b0e231b52bf69ce9d7c882b52cf",
          "transactionIndex": "0x4",
          "logIndex": "0x3",
          "removed": false
        }
      ],
      "logsBloom": "0x00000000000000000000000000000000000000000000000000000000000040000000200000000000000000000000000000000000000001000000000000000000000000000000000000000000000000000000000000000000000000000000000000000000000000000000000000000200000000000000000000000000000000000000000000000040000000000000000000000000000000000000000000000000000100000000100000000000000000000000000000000000000000000000000200000000000000000000000000080000000000000000000000000000000000000000000000000000000000000000000000000000000000000000000000000000",
      "type": "0x0",
      "transactionHash": "0xa3d86ae8948d36990203a6f5c90c2b9e56dc1b0e231b52bf69ce9d7c882b52cf",
      "transactionIndex": "0x4",
      "blockHash": "0x5ffa41e4fe1374f9a11cbd90bf05a38d0a1bd9bcc56c7ec5d94061368568d512",
      "blockNumber": "0x421c45c",
      "gasUsed": "0xaf9a",
      "effectiveGasPrice": "0x2f25f0c900",
      "blobGasUsed": "0x78",
      "from": "0xa5efe8954b68b95333f3ace9e65039dc8235fd47",
      "to": "0x052f70c756b079f7eadb8b72c7ea1579215090c8",
      "contractAddress": null,
      "daFootprintGasScalar": "0x1",
      "l1BaseFeeScalar": "0x0",
      "l1BlobBaseFee": "0x68c911",
      "l1BlobBaseFeeScalar": "0x0",
      "l1Fee": "0x0",
      "l1GasPrice": "0x78388cf",
      "l1GasUsed": "0x788"
    },
    {
      "status": "0x1",
      "cumulativeGasUsed": "0x62893",
      "logs": [
        {
          "address": "0x052f70c756b079f7eadb8b72c7ea1579215090c8",
          "topics": [
            "0x023c5efe572c42192271951adb0e77f97d7fc84bc761d026189ac08617346824",
            "0x000000000000000000000000a5efe8954b68b95333f3ace9e65039dc8235fd47"
          ],
          "data": "0x0000000000000000000000000000000000000000000000000000000000000040000000000000000000000000000000000000000000000000002386f26fc10000000000000000000000000000000000000000000000000000000000000000000664657369676e0000000000000000000000000000000000000000000000000000",
          "blockHash": "0x5ffa41e4fe1374f9a11cbd90bf05a38d0a1bd9bcc56c7ec5d94061368568d512",
          "blockNumber": "0x421c45c",
          "blockTimestamp": "0x6a2b4cb2",
          "transactionHash": "0x99b0a4141fa060dccb97592f7a19adb35b3b08b2df499bbd5511d7a9eb901630",
          "transactionIndex": "0x5",
          "logIndex": "0x4",
          "removed": false
        }
      ],
      "logsBloom": "0x00000000000000000000000000000000000000000000000000000000000040000000200000000000000000000000000000000000000001000000000000000000000000000000000000000000000000000000000000000000000000000000000000000000000000000000000000000200000000000000000000000000000000000000000000000040000000000000000000000000000000000000000000000000000100000000100000000000000000000000000000000000000000000000000200000000000000000000000000080000000000000000000000000000000000000000000000000000000000000000000000000000000000000000000000000000",
      "type": "0x0",
      "transactionHash": "0x99b0a4141fa060dccb97592f7a19adb35b3b08b2df499bbd5511d7a9eb901630",
      "transactionIndex": "0x5",
      "blockHash": "0x5ffa41e4fe1374f9a11cbd90bf05a38d0a1bd9bcc56c7ec5d94061368568d512",
      "blockNumber": "0x421c45c",
      "gasUsed": "0xaf9a",
      "effectiveGasPrice": "0x2f25f0c900",
      "blobGasUsed": "0x78",
      "from": "0xa5efe8954b68b95333f3ace9e65039dc8235fd47",
      "to": "0x052f70c756b079f7eadb8b72c7ea1579215090c8",
      "contractAddress": null,
      "daFootprintGasScalar": "0x1",
      "l1BaseFeeScalar": "0x0",
      "l1BlobBaseFee": "0x68c911",
      "l1BlobBaseFeeScalar": "0x0",
      "l1Fee": "0x0",
      "l1GasPrice": "0x78388cf",
      "l1GasUsed": "0x788"
    }
  ],
  "libraries": [],
  "pending": [],
  "returns": {},
  "timestamp": 1781222579294,
  "chain": 42220,
  "commit": "77e3a86"
}